S00E00005269526561642E73726563DF
S11300000C94AE0D0C94551E0C94CB0D0C94CB0D8E
S11300100C94CB0D0C94CB0D0C94CB0D0C94CB0DFC
S11300200C94CB0D0C94CB0D0C94CB0D0C94CB0DEC
S11300300C94CB0D0C94CB0D0C94CB0D0C94CB0DDC
S11300400C94CB0D0C94CB0D0C94CB0D0C94CB0DCC
S11300500C94CB0D1B0810210120F90A02060A0991
S11300600E090306060708030703070A0A0A0A0A11
S11300700A0A0A0A0A0303060706090F0A0A0A0AF1
S113008009080B0A02060A080F0C0C0A0C0A0B0AD0
S11300900A0C0E0B0C0A04080408090509090809CE
S11300A00A070A0902030A020E09090909060907CF
S11300B009090E0909080602060A000000000000EA
S11300C0000000000000000000000000000000002C
S11300D00000000000000000000000000A09090AF6
S11300E00A0D07090C0B0B0E0E0C0C0A0D0F0F0A50
S11300F00A090C090D0C0C09090D0D0C0A09090952
S1130100090C080B0E0A0C0D090A09080907070A4D
S11301100A0A0A0405030000000008050A08080981
S113012007080802080906070000000B0B0D0A0C5B
S11301300C0C0D0C0E00000000000000000000007C
S113014000000000000000000000000000000000AB
S1130150000000000000000000000000000000C0DB
S1130160FF0D0080FF1B0000080000000E000000CF
S11301700400000060000000700000002000000087
S11301800044000000881F0000F00700007C02000B
S1130190004C04000080E80100007F0000C02F0034
S11301A000C04500000088000000380C0000F8384A
S11301B0000018C3000030060100F0FF0F00C0105B
S11301C0040080610C00008E0F0000180E000078FF
S11301D0000000F80100000804010010080300C03A
S11301E08F0100008F010000C0000000C00000006B
S11301F0603C000060FC00003004020020080400A1
S113020000E00700008007000080070000BC1F001A
S113021000FC43000018870000B01B0100C063020B
S1130220000080070000800F0000001B0000080091
S113023000000E00000004000000C07F0000E0FF8A
S11302400700F0001E007000E00030008003300062
S1130250000C20000018800100180006001C007823
S1130260001F00C0FF0F0000FE0300800D0000000F
S11302701A00000008000000FE0100002000000039
S1130280A000000060030000002000000040000007
S11302900080000000F01F0000E03F0000000400A8
S11302A000000800000010000000004C000000588E
S11302B000000070000000010000000200000004C3
S11302C000000008000000100000002000000040B2
S11302D0000000003000000070000000C0000000BA
S11302E0C0010000C00000006000000070000000B9
S11302F030000000180000001C000000E01F000097
S1130300E07F0000608001006000060040000800FB
S11303108000100000033000000C300000F03F00AB
S113032000C01F00000000000000000000000300E7
S113033000000300000003000000FE7F0000FCFF3B
S113034000000000000000000000000000000006A3
S11303500F00000F1F0000032300000247000004E9
S1130360860000080E0100100C0200601C040080CE
S11303701F0800001E100000080C00001C380000BC
S11303800CC0000008000100100402002008040052
S1130390401008008051180000BE1900003C3E00C7
S11303A000000C0000001E000000260000004600B3
S11303B00000870000000301000003020000FE7F2C
S11303C00000FCFF00000010000080C30000E08774
S11303D0030040040C0080041000000920000012F7
S11303E040000024800000C8C1010010FF0100008B
S11303F0FC000000FE010000FE0F000022100000BF
S11304002240000044800000880001001001020026
S11304106006060080F9070000E207000001000002
S113042000020000000480000008F0010010F8033E
S113043000203C0000401E0000800E000000070069
S1130440000006000000703C0000F0FD0000300ACF
S11304500100200804004010080080201000004122
S113046020000046210000F87E0000E0780000C073
S1130470C70000C09F0300C0600C00808010000013
S1130480012100000242000004C6000030C6000042
S1130490E0FF0000007F000080010C0000071C004A
S11304A000063000000860020038C002002080030B
S11304B000000800000028000000D800000010011F
S11304C00000100400003018000080080000001133
S11304D0000000220000004400000088000000101A
S11304E0010000200200003018000040100000004D
S11304F01100000036000000280000002000000069
S11305000E0000001E0000000600000004000000B1
S113051008BC0100107C0300200C000080080000CF
S1130520000F000000E0030000F00F000070300036
S11305300020C00000203C010040FC0400400609EB
S113054000800C11000019230000E24F0000CCD100
S11305500000902001006020000080730000003C37
S1130560000000001E000080070000E0070000F803
S113057008000038100000F0200000C04F00000008
S1130580FC000000C00F0000003C0000FE7F0000E3
S1130590FCFF00000802010010040200200804000F
S11305A0401008008020100000B73000007C3F009D
S11305B000203C0000801F0000C0FF0000C0810339
S11305C000C0000C00800010000001200000024068
S11305D000000480000010800000E0E00100E0FF63
S11305E00700C0FF0F00800010000001200000027F
S11305F04000000480000010800000E0C001008082
S1130600FF010000FC000080FF1F0000FF3F00000E
S1130610824000000481000008020100100402006E
S113062020080400401008008000100000FF3F0074
S113063000FE7F0000040100000802000010040016
S11306400020080000401000008000000000F003BB
S11306500000F81F00003870000010800000100037
S11306600200200004004020080080411800008699
S11306701800001C3F000020FE0000F8FF0100F0FD
S1130680FF0300000800000010000000200000002C
S1130690400000008000000000010000F8FF01009D
S11306A0F0FF0300E0FF0700C0FF0F000000100090
S11306B000002000000040000000C00000F8FF001F
S11306C000F0FF0000E0FF0700C0FF0F0000C001C2
S11306D00000C0000000C0000000E0010000600E47
S11306E000006078000060C0030040000E0080FF3E
S11306F01F0000FF3F0000004000000080000000D9
S11307000001000000020000000400000008008056
S1130710FF1F0000FF3F00000E00000078000000F3
S1130720C0070000003C000000E0030000000E00D1
S113073000000F000080030000E0010000700000D2
S11307400018000000F0FF0300E0FF0700C0FF0FE7
S11307500080FF1F0000030000001C000000600078
S1130760000080030000001C0000007000000080F6
S1130770030000001C0000FF3F0000FE7F0000C0DB
S11307800F0000E07F0000E0C001004000020040D4
S1130790000800800010000001200000024000005A
S11307A00840000070E00000C0FF0000007E000070
S11307B0C0FF0F0080FF1F00008100000002010045
S11307C00004020000080400001008000060180083
S11307D000801F0000001E000000F0030000F81F4E
S11307E0000038700000108000001000020020009B
S11307F00400400038008000D00000033001001CD9
S1130800380200F03F0400801F0000F0FF0300E006
S1130810FF0700402000008040000000810000002D
S113082002010000040E000018FE0000E08703002F
S113083080070400000F0300003F0C000063300039
S113084000C24000000483000008060100100C02EE
S113085000601804008063040000C20F0000000F51
S11308600000020000000400000008000000100066
S11308700000E0FF0700C0FF0F008000000000013F
S11308800000000200000004000000F87F0000F0F7
S1130890FF01000000060000000800000010000036
S11308A0002000000040000000C00000F8FF00002D
S11308B0F0FF000020000000C0030000003F000023
S11308C000F0030000001F000000F0000000C00161
S11308D00000F00000007C0000001F000080070002
S11308E00000010000007E000000FC07000000FE84
S11308F0000000C0030000C0070000FE0000801FCD
S11309000000003F000000F0070000007E0000002F
S1130910C0010000F00300E07F0000C00F00008071
S113092000100000033000000E380000701C0000AE
S1130930C00F0000000E0000007E000000C703008E
S113094080030E0000013800000040000004000095
S11309500018000000F000000080070000001E00E6
S11309600000F01F0000C03F0000E0000000E000B5
S11309700000700000003000000020000000400073
S11309800C0080001C0000012E0000024E00000438
S11309908700008803010090030200E0010400C006
S11309A00108008000100000FFFF0100FEFF0300AB
S11309B0040004000800080030000000800100006A
S11309C0000E0000003000000080010000000E0056
S11309D00000300000008001001000100020002002
S11309E000C0FF7F0080FFFF000080010000C00105
S11309F000007000000038000000700000000003D8
S1130A0000000038000000C00000000000010000E9
S1130A1000020000000400000008000000100000B4
S1130A2000200000004000000080000000000100E1
S1130A300300000006000000080000002000000081
S1130A40400000000008070000381F0000183300B1
S1130A5000104200002084000040080100801101C1
S1130A600000FE070000F80F0080FF1F0000FF1FBA
S1130A7000002020000020800000400001008000D1
S1130A8002000007060000FC070000E0030000C0AD
S1130A90070000E03F0000E0E000004000010080AB
S1130AA000020000010400000404000038060000F5
S1130AB0C0070000E03F0000E0E00000400001004B
S1130AC080000200000104000004040080FF1F00F5
S1130AD000FF3F0000800F0000807F000080C900FD
S1130AE0008011030000210400004208000084106B
S1130AF0000010310000E033000000270000400037
S1130B00000080000000C0FF0700C0FF0F00800449
S1130B1000000009000000020000000000020000C4
S1130B20E70E0000FF130000632400008248000069
S1130B300491000018230100F84302009083070089
S1130B4000000600F0FF0300E0FF070000080000BB
S1130B500008000000080000001000000060000011
S1130B600080FF010000FE030020FF070040FE0F8D
S1130B70000000800000F9FF0100F2FF0100FCFF0B
S1130B800000F8FF010000300000003000000030D9
S1130B90000000F0010000300F0000303800002099
S1130BA0C0000000000100F0FF0300E0FF070000A8
S1130BB0FE0F0000FC1F00001000000010000000E9
S1130BC020000000C000000000FF030000FC07003C
S1130BD000040000000400000008000000300000D1
S1130BE000E0FF000000FF010080FF030000FF079A
S1130BF000000C0000000800000018000000300095
S1130C0000006000000080FF010000FE030000F807
S1130C10000000FC0700001C180000082000001061
S1130C2040000020800000C080010000FF0100009F
S1130C30F8000000FE7F0000FCFF00001018000018
S1130C40104000002080000040000100808103006B
S1130C5000FE030000F0010000E0030000F01F00AC
S1130C60007070000020800000400001008000023D
S1130C70000002030000FC7F0000FCFF0000F83FBE
S1130C800000F07F0000C0000000C00000008000F1
S1130C900000000100000010020000780C00009821
S1130CA03100001043000020840000C018010080BF
S1130CB031020000E603000090030000040000007D
S1130CC008000000FE3F0000FCFF0000400001009F
S1130CD0800002000000040000FE030000FC0F007E
S1130CE0000030000000400000008000000000010F
S1130CF0000080010000FF070000FE0F0000040058
S1130D00000078000000C0070000007C000000C064
S1130D10010000C0030000F80000003E0000000CC9
S1130D2000000018000000F0010000001F00000097
S1130D30F0010000C0030000F80000003E000000C5
S1130D407C000000C0070000007C000000F00000F0
S1130D50007C0000800F0000000300000002080077
S1130D60000C180000381C0000C00F0000000E002A
S1130D7000003F000000C30100000106000000085D
S1130D8000000480000078000100C0070200007C1D
S1130D90030000C0030000E0000000780000001E13
S1130DA00000000400000008300000107000002063
S1130DB0B8000040380100801C0200001F0400003D
S1130DC00E080000041000000001000000070000ED
S1130DD0F8FB0300F8E30F001000100020002000CF
S1130DE0C0FF0F0080FF1F0000010001000200028D
S1130DF000FCF10700F0F7070000380000002000B5
S1130E000000C0000000C0000000C000000080011D
S1130E100000000600000008000000300000004050
S1130E20000000C0000000C0000000DC3F0000F82B
S1130E307F0000C800000090000000200000004077
S1130E40000000800000000003000000FC3F0000E0
S1130E50F87F000070000000A001000060F20300B1
S1130E60C0F4070080360800003E10000000200097
S1130E7000FC7F0000F8FF0000E0010000600200B9
S1130E8000C0E4070080EF0F0000621000007E2025
S1130E90000000400000F8FF0000F0FF0100C0FF68
S1130EA0030080FF070080E1030000F1000000F26E
S1130EB0010000440200008803000030000000C06C
S1130EC0FF030080FF070000FE0F0000FE1F00006C
S1130ED0060F00008C030000B0070000600900004A
S1130EE0601C0000C000000000FF0F0000FC1F0099
S1130EF00018000000780000009878000030F90124
S1130F0000E011020080F9070080F90700009F004B
S1130F10000000030000000C000000300000F0FF9F
S1130F200100E0FF0300001C000000E00000000ED0
S1130F300700001630000024400000F8FF0000E025
S1130F40FF0000C00000008038000080580000004E
S1130F50B1000000C20F000004600000188000000F
S1130F60F0FF0100C0FF010000300000009300000A
S1130F700022010000C23F0000047F00000860005E
S1130F80001060000020E00100C0C0040000FF0960
S1130F900000FE1E00000018000030000000D00019
S1130FA0000030F9010060FA0300C01B0400001BBC
S1130FB00800000C10000008200000F87F0000DC8E
S1130FC0FF000018000000C0030000C004000080FF
S1130FD0C90F0000DF1F0000CC200000CC4000003F
S1130FE0F080000040000100C0FF0300E0FE0700A5
S1130FF0C000000000EE0F0000FE3F000064480047
S1131000004890000010C0000020000000C08003D1
S11310100000FF090000FE130000003E000000086D
S1131020000000200000F0FF0100E0FF030080FB4F
S1131030030080FF0F0000191200001224000004B6
S11310403000000800000030001800C0FF79008064
S1131050FFD7000000E80100001002000020040097
S1131060FC7F0F00F87F0E0000C00000004002006B
S11310700080E40000F76F0300FFCF060032800514
S1131080002400070008000600100018002000607B
S11310900080FFFF0100FFFF0100000C000000249E
S11310A0070000480E0070FF3400F0FF2800200302
S11310B07C0040023800800080010001C00000066E
S11310C0000300F8FF0F00F0FF1F000000F0008095
S11310D00120018033C00180B5E0030029010F0025
S11310E0D2030C002C781700D0804A00A0FFF50032
S11310F060FEF1008007000080090000001300007A
S1131100003A000000987F000098FF0000F079008A
S113111000C01C00000006000000030000000300E3
S11311200000FE3F0000F87F0000E0FF0000E0FF49
S1131130010060000300C0180100005B010000B65C
S1131140010000C61D00000C7C0000F09F0000C0E0
S11311503F010000E00100008000000000020000E8
S1131160FF1F0000FE3F0000B83F0000F8FF000032
S11311709021010020410200400003008000000093
S11311800003000000FC3F0000F87F000000200086
S11311900000E0000000600300C0FF0400807F0D39
S11311A00000000E0000FC3F0000F87F000018C0A3
S11311B0000010470000207B0000407600008038CB
S11311C000000003000000FC3F0000F87F0000E086
S11311D0FF0000E0FF010060000300C018010000F0
S11311E05B010000B6010000C60100000C00000015
S11311F0F0FF0000C0FF0100C0FD0100C0FF0700B8
S1131200800C090000091E00000210000004000008
S11312100018000000E0FF0100C0FF03008003008D
S113122000800500000009000000FE3F0000F87F78
S11312300000001E00000003000080010000800088
S113124000008001000000FF1F0000FC3F00003888
S11312503F000050FE0000B00001002001020040E9
S113126002040080050800001A100000E43F00009A
S1131270CC3F000070000000B0000000200100001E
S1131280C0FF070000FF0F0000000E000000060072
S1131290000006000000040000F0FF0000E0FF036F
S11312A0000060060000800700000E000000160029
S11312B0000024000000F87F0000E0FF01000000AF
S11312C002000000040000000800000010000000FC
S11312D0200000FC7F0000F87F0000E000000060B8
S11312E00100004002000080FF070000FE1F000014
S11312F00020000000400000008000000000010009
S113130000000200FFFF0700FEFF070000FE1F00B1
S113131000FE3F0000247000007838000000180030
S11313200000E000000000070080FF0F0000FF1F26
S11313300000FC3F0000FC7F000048E00000F0706B
S113134000000030000000C0010000000E00FCFF9F
S11313501F00F8FF3F000038000000580000009014
S1131360000000E0FF030080FF070000C00700004A
S1131370F80000003E0000007C000000800F000028
S113138000F00000E0FF0300C0FF070000070000BA
S1131390000B00000012000000FC7F0000F0FF00C2
S11313A00000F80000001F0000C0030000800F00D0
S11313B00000F0010000001E00F0FF7F00E0FFFFCE
S11313C0000000C00000004002000080040000F79C
S11313D00F0000FF0F00003200000024000000088E
S11313E0000000100000006000000080FF07000003
S11313F0FF0F00000E0F00001E3F000024420000FB
S1131400F8FF0000E0FF00000030000000C0000012
S11314100000030000FF1F0000FE3F0000783C00B6
S11314200078FD000010050100200A02008013046A
S113143000000008000000100000FE3F0000FC3F18
S1131440000060000000E0000000600100004002B5
S1131450000080040600001B12000026240000C8BF
S11314607F0000187F0000E0FE0000E0FF03004062
S113147086040080040F0000010800000200000040
S11314800C000000F0FF1F00E0FF3F00C0FC010063
S1131490C0FD07008018090000191E00002210007A
S11314A000C4000000180E0000E0FF0100C0FF03AC
S11314B00000000300000009000000120000DC3FEF
S11314C00000FC3F0000C800000090000000200065
S11314D00000400000008001000000FEFF0300FC4B
S11314E0FF07001800000018000000100000002092
S11314F0800100408004008000090000FF1F0000FC
S1131500FC1F0000F87F0000F0FF0000307C0000AA
S1131510201E0000403E00008048000000710000D2
S11315200006000000FC7F0000FEFF00000C00002D
S113153000C0010000C00200008004000000FF0F92
S11315400000FC3F00000040000000870000001A7B
S11315500100003C02000040040080FF0F0000FF77
S11315600F00000003000080030000307F000070C3
S1131570FF010020460200408607008008040000A6
S11315803100000086030000FC7F0000FEFF000025
S11315900C000000C0010000C00200008004000034
S11315A000FF1F0000FC3F000000070000000300D4
S11315B00060030000200300004006000080FF0FCD
S11315C00000E61F00001C0000002C000000480082
S11315D00000F0FF0100C0FF03000080030000C012
S11315E0010080E3000000050700000A380000FC49
S11315F0FF0000F8FF01003C00000080F9030080B8
S1131600FB0F000091100000622100000441000063
S11316100880000030000100C0FF030080FF0300C9
S113162000F3070000B51F00002A220000944700C1
S1131630002880000050000100E0000200C0FF0705
S113164000C0FF070080000000000C0000003C0008
S11316500000C8000000F0010000C0020000000209
S1131660040000060C0000FF1F0000FC1F000030F7
S1131670180000904800002091000080C301000081
S1131680040200000C0400001E0F00000C0E006099
S113169000000020010000400200000007000000DC
S11316A008000000180000001800000018000000E6
S11316B01000000000300000003000000020000096
S11316C000400000008000000000FF1F0000FC3FFD
S11316D000001800000018000000100000002000A6
S11316E000004000000000FF0F0000FE1F0030005B
S11316F0000050000000A000000020010000400293
S1131700000080040000000A000000140000003003
S113171000000060000000C0000000400100004024
S11317200200008004000000090000001200000014
S11317302800000060000000F0000000E00100004C
S11317400003000000050000000900000012000072
S1131750002400000050000000E000000020010010
S1131760004002000000030000000C000000140010
S11317700000240000004800000090000000400128
S11317800000000300008007000000080000001EA5
S113179000000000008003000000050000003E007F
S11317A000007C0000003800000050000000E0034E
S11317B0000000040000800F000000070000000A81
S11317C00000001C00E0FF0300C0FF0700802008A9
S11317D000C0FF7F0080FFFF00000441000018C527
S11317E00000E0FB0000E0FF0100C0FF0700000074
S11317F00900000012000000180000FC3F0000F87F
S1131800FF00000020010000C00300000000008071
S1131810FF070000FF1F0000002400000048000034
S11318200060003000000070000000A000000060B4
S1131830FFFF07C0FCFF1F800100240006004800D2
S113184008006000F00000005002000020030000C7
S113185040F0FF0780FBFF1F001E0024000000482B
S1131860000000600078000000C001000080030058
S113187000C003000080F8FF0F00FFFF3F001E00C0
S11318804800000090000000C00000C000000040BC
S113189000000080000000000100000002000000C1
S11318A0F8FF0F00F0FF1F00E001000060020000DD
S11318B0C007000080010000000E800000068001C7
S11318C000FCFF0100F0FF01E00000002001000027
S11318D02001000040040000800C000000150000FE
S11318E0001B000000020000000F0000001E0000AA
S11318F0002C00000068000000B00000000001009F
S113190000000200000006000000070000000600BE
S1131910000030000000B0000000A00100008001C1
S1131920000080000000000B0000000C000000100C
S1131930000000180000001000000020000000F06B
S1131940010000E0030000000100000002000000AC
S11319503800000050000000E000000040000000DB
S11319600001000080010000000100000000003CB4
S1131970000000FE0100000C0300000C0C00000835
S11319801000001020000020400000408000008073
S11319908101000086010000F8010000E00300005E
S11319A0E00C000040200000405C000080A8000023
S11319B000D1010000E201000084090000101800B9
S11319C000E01F0000001F0000020000000C0000E7
S11319D000F8FF0000E0FF03000000040000F0092D
S11319E00000F017000020290000405E00008091F4
S11319F000000001010000FE030000FC030000F0F1
S1131A00070000301C000020240000404800008033
S1131A10770000000E000000020000000400000037
S1131A20F80F0000E01F0000800F0000803F00005E
S1131A3080C10000000101000072020000B4050032
S1131A400068070000900B00002010000060600098
S1131A5000748000007000000000F8000000F8032B
S1131A600000180C0000101000002C27000068591A
S1131A700000D8720000E0B9000000020100000676
S1131A80060040060800000700000007000000FCF4
S1131A90010000C07B00000092000000A2030000CF
S1131AA0C4050000080800001010000020300000E9
S1131AB080200000007F0000007C000000FC01008A
S1131AC0000C0700000809000010120000E01D00CF
S1131AD00080010000800000000081010000FE037E
S1131AE00000F8030000FF070000FF0300000300EC
S1131AF00000001F0000007F00000083010000C2FE
S1131B000300008400000008030000900F00002080
S1131B1035000040520000C0FC0000C8F00000E0A6
S1131B2000000000F0010000F80700007018000039
S1131B30602C00004054000080C9000000F3000045
S1131B40009C00000078000000B8030000300C0086
S1131B5000C030000080410000F8010011241FBEC5
S1131B60CFE5D8E0DEBFCDBF11E0A0E6B0E0EEECFB
S1131B70F5E402C005900D92A83EB107D9F722E022
S1131B80A8EEB1E001C01D92AD3EB207E1F70E949C
S1131B909D1D0C94E5220C9400009093F601809313
S1131BA0F501FC013296E491E093F301FC013396D4
S1131BB084918093F40108952F923F924F925F9203
S1131BC06F927F928F929F92AF92BF92CF92DF9249
S1131BD0EF92FF920F931F93CF93DF93CDB7DEB7AE
S1131BE02A970FB6F894DEBF0FBECDBF2091F50142
S1131BF03091F601F901A591B491F901359604915A
S1131C00F90136961491682F70E0402F50E0FB01E3
S1131C103796E41BF50BE20FF31F9491E0916D00EE
S1131C20F0916E00F887EF838A30A1F4E0906700AA
S1131C30F090F401E091EA01F091EB01EF9CE00DEA
S1131C40F11D1124F093EB01E093EA011092ED01F0
S1131C501092EC01801708F465C1181708F464C1E8
S1131C60AB2B09F463C1992309F462C1E091EF013C
S1131C70EE2321F0F091F301FC831AC0E82FE45D18
S1131C80E73028F0E351E63010F0813D81F4A09173
S1131C906800E091EC01F091ED019A9FE019F109DF
S1131CA01124F093ED01E093EC019C8301C09C832B
S1131CB080538A3030F4F901E41BF50BF796E49174
S1131CC0EC8380916800FC81EF2FF0E0FA87E987CC
S1131CD0E091EC01F091ED019C81899FE00DF11DF3
S1131CE01124E03FF105A0F0909167008091F40188
S1131CF0E091EA01F091EB01989FE00DF11D1124B0
S1131D00F093EB01E093EA011092ED011092EC01E3
S1131D10641B750B1616170694F4A0E080E090E09F
S1131D20EA2FF0E03796E20FF31FE4918E0F911D36
S1131D30AF5FEA2FF0E0E617F70794F302C080E004
S1131D4090E06091F401689F9001699F300D112427
S1131D50812F90E0841B950B0796880F991F880F9D
S1131D60991F880F991F820F931F9C013695279501
S1131D7036952795369527950F2EF7E04F2EF02DA3
S1131D804822EC81E1119CC0AAC0312CF7E0F41583
S1131D9020F42FEF821A920A422C8D819E81880DA5
S1131DA0991DE091F501F091F601E80FF91FE49116
S1131DB0E983209168008A819B81289F5001299F93
S1131DC0B00C11248091EC019091ED01A80EB91E84
S1131DD080916700C090EA01D090EB01389EC00C5E
S1131DE0D11C1124222309F45BC001E010E0042C6F
S1131DF002C0000F111F0A94E2F7622C4CC0752C2C
S1131E007501E60CF11C898190E080239123892BD4
S1131E10D1F080916B0090916C0090936E00809350
S1131E206D008091F001882339F0B701C601870D58
S1131E30911D0E940C2024C0B601670D711DC701BD
S1131E400E940C201DC08091EE018823C9F080916E
S1131E50690090916A0090936E0080936D00809168
S1131E60F001882339F0B701C601870D911D0E9446
S1131E700C2006C0B601670D711DC7010E940C201D
S1131E80739480916700781608F4BDCF63948091B1
S1131E906800681628F4809167008111B0CFF6CFEE
S1131EA0439433948091F401381608F46FCFEA8197
S1131EB0FB813196FB83EA83FC81EF1758F00FC056
S1131EC01B821A82812C912CC90101969E838D83D9
S1131ED0212C522C8091F401811157CFE8CFEF814E
S1131EE0F885F0936E00E0936D0050916800409186
S1131EF0660029853A85529FC001539F900D112495
S1131F00840F911D2091EC013091ED01820F931FFC
S1131F109093ED018093EC01842F3C81359F800DDB
S1131F20112407C080E005C080E003C080E001C048
S1131F3080E02A960FB6F894DEBF0FBECDBFDF91C6
S1131F40CF911F910F91FF90EF90DF90CF90BF90B2
S1131F50AF909F908F907F906F905F904F903F9045
S1131F602F900895AF92BF92CF92DF92EF92FF929B
S1131F700F931F93CF93DF930091F5011091F60116
S1131F80F8013596C490F8013696B490DC01EC91D2
S1131F90EE23A9F1D090EF01A090F30160916800C5
S1131FA070E0A69EE001A79ED00D1124409166002A
S1131FB050E0119620E030E0EC2CF12CDD2019F0FB
S1131FC02C0F3D1F16C0EC1550F0BE1650F0F0E07B
S1131FD03796EE19FF09E00FF11FE49103C0EA2DD3
S1131FE001C0EA2DE69FC001E79F900D1124280F40
S1131FF0391F240F351FED91E111E0CF02C020E01D
S113200030E0822F932FDF91CF911F910F91FF909A
S1132010EF90DF90CF90BF90AF9008950F931F93F0
S1132020CF93DF93EC018881882369F010E000E00E
S11320300E94DC0D080F1F5FFE01E10FF11D80817E
S11320408111F6CF01C000E0802F90E0DF91CF91A5
S11320501F910F9108958F929F92AF92BF92CF924A
S1132060DF92EF920F931F93CF93DF93EC016B01F9
S11320704A015901C8010E94B20FAC18BD08209151
S1132080F401A21AB108B694A794CA0CDB1C21E08F
S1132090E21621F022E0E21210C009C08C1A9D0A57
S11320A0881A990A96948794C80DD91D06C0881574
S11320B0990518F4E401C81BD90BD093ED01C09322
S11320C0EC01D092EB01C092EA01C8010E940E100B
S11320D0DF91CF911F910F91EF90DF90CF90BF9040
S11320E0AF909F908F9008952F923F924F925F925E
S11320F06F927F928F929F92AF92BF92CF92DF9214
S1132100EF92FF920F931F93CF93DF93CDB7DEB778
S11321102A970FB6F894DEBF0FBECDBF5A01A81A96
S1132120B90A1AF4B194A194B108F901E61BF70BAA
S11321301AF4F195E195F109FA87E9876C017B01BD
S11321404817590720F088248394912C03C08824CD
S11321508A94982C2617370720F022242394312CB4
S113216003C022242A94322C29853A85A216B30668
S11321700CF45AC02901662457FC6094762C440C54
S1132180551C661C771CA501662757FD6095762FA4
S1132190441A550A660A770ABB200CF49FC0220F22
S11321A0331FA901662757FD6095762F4D835E8303
S11321B06F83788729853A852A193B09B901660F07
S11321C0771F9B01442737FD4095542F29833A8379
S11321D04B835C8364018401080F191F812C912CAB
S11321E0B701C8018C199D090E940C2077204CF47A
S11321F04D815E816F817885440E551E661E771E63
S11322000AC069817A818B819C81460E571E681EA3
S1132210791EE20CF31C7FEF871A970A0C0D1D1D23
S1132220A814B904ECF65AC02501662457FC60943E
S1132230762C440C551C661C771CE985FA85CF0165
S1132240AA2797FDA095BA2F481A590A6A0A7B0A49
S1132250FF230CF443C0C501880F991F9C01442738
S113226037FD4095542F2D833E834F835887AE1AF4
S1132270BF0AAA0CBB1CC501AA2797FDA095BA2FBB
S113228089839A83AB83BC8351017101E60EF71EE7
S113229000E010E0B7016A197B09C6010E940C2016
S11322A077204CF42D813E814F815885420E531E78
S11322B0641E751E0AC049815A816B817C81440E5B
S11322C0551E661E771EC80CD91C0F5F1F4FEA0CE3
S11322D0FB1C69857A8560177107E4F62A960FB6A8
S11322E0F894DEBF0FBECDBFDF91CF911F910F9148
S11322F0FF90EF90DF90CF90BF90AF909F908F9022
S11323007F906F905F904F903F902F900895AF9281
S1132310BF92CF92DF92EF92FF920F931F93CF93CE
S1132320DF935C017B01EA01690100916D0010916A
S11323306E009B010E94152000916D0010916E00AB
S11323409601AE01B601C5010E94152000916D00F1
S113235010916E009601A501B701C5010E941520D8
S113236000916D0010916E009601AE01B701CE018F
S11323700E941520DF91CF911F910F91FF90EF9054
S1132380DF90CF90BF90AF9008952F923F924F92DD
S11323905F926F927F928F929F92AF92BF92CF92F1
S11323A0DF92EF92FF920F931F93CF93DF93CDB7FA
S11323B0DEB764970FB6F894DEBF0FBECDBF988723
S11323C08F831B015A8749873A8329831C870B878C
S11323D0EE2009F4D1C0580181E090E03C01601A7C
S11323E0710A215031093C832B839B012F5F3F4F9E
S11323F03E832D8300916D0010916E002B813C81F2
S11324002A0D3B1D6D817E816A197B098F81988518
S11324100E9415204B845C8403E010E0EE24E394D6
S1132420F12C8F8198850196988B8F87E985FA85A1
S11324303197FA8BE98BFC8AEB8A3E862D8618014C
S113244030C04A145B0429F1CB80DC802B893C89A1
S1132450C20ED31EED80FE80E21AF30A8F819885A6
S11324608419950900916D0010916E009601AC01DC
S1132470B7010E94152089859A85840D951D0091C8
S11324806D0010916E009601AC01B7010E941520F9
S113249025018B899C8901969C8B8B8B92E0290E5C
S11324A0311C8B889C88E1E08E1A91088A149B0465
S11324B041F1C980DA80CA0CDB1CED84FE84EA1881
S11324C0FB0800916D0010916E0096014F815885B4
S11324D0B7018F859889EB89FC898E1B9F0B0E941D
S11324E0152000916D0010916E0049895A892B893D
S11324F03C89420F531F9601B70189859A850E9432
S1132500152077202CF4620C731C8B899C8902C1E2
S1132510C4018A199B09880F991F0596680E791EB4
S11325208B899C8931E0A31AB108F4C02D843E84C0
S11325304A145B0409F1E980FA80E80CF91C610192
S1132540C818D9088F8198858419950900916D0060
S113255010916E009701AC01B6010E941520898587
S11325609A85840D951D00916D0010916E00970160
S1132570AC01B6010E9415200B851C8581E090E01A
S11325803C01601A710A0F2EF3E04F2E512CF02DEE
S1132590EE24E394F12C8F81988501969C838B83A0
S11325A0E985FA853197FE83ED83FE86ED8630C09A
S11325B0009731F18017910719F151012D853E855E
S11325C0A21AB30AEF80F884E01AF10AB501C70130
S11325D00E940C20C980DA808D859E85C80ED91E84
S11325E0B601C7010E940C20E984FA84E00EF11EB2
S11325F0B501C7010E940C20B601C7010E940C203E
S1132600ED85FE853196FE87ED87F2E04F0E511C75
S11326108D849E8421E0821A91086101C01AD10A36
S1132620AB80BC808D859E85A81AB90AB601C50108
S11326300E940C20ED80FE80ED85FE85EE0EFF1ECF
S1132640B601C7010E940C20C980DA80C00ED11ED9
S1132650B601C5010E940C20B601C7010E940C20DE
S113266077202CF4640C751C8D859E850DC0801A12
S1132670910A880C991CF5E08F0E911C680C791C4A
S11326808D859E8501501109081719070CF090CF0C
S1132690B1012B853C85621B730B00916D00109179
S11326A06E009B0149855A858F8198850E9415206B
S11326B06B857C8589819A81680F791F00916D00F3
S11326C010916E009B0149855A858F8198850E94DF
S11326D015208F819885EB85FC858E1B9F0B0091BF
S11326E06D0010916E0029813A81AC01B1010E9404
S11326F015208B859C8529853A85820F931F00912F
S11327006D0010916E0029813A81AC01B1010E94E3
S1132710152005C0A816B9060CF093CE07CF649611
S11327200FB6F894DEBF0FBECDBFDF91CF911F91DE
S11327300F91FF90EF90DF90CF90BF90AF909F905C
S11327408F907F906F905F904F903F902F9008955F
S11327508BB780648BBF85B78A6085BF789484B754
S1132760806884BF84B7806884BF8F9A8E9A8B9A5E
S11327708C9A8D9A0E94BE1E84E590E00E94CD0D35
S113278080E090E00E945C2083E390E00E941921A5
S11327900895AF92CF92DF92EF920F931F93D0924E
S11327A06C00C0926B00A0926800A09267000E9427
S11327B02B101F910F91EF90DF90CF90AF90089561
S11327C0EAEDF1E040E050E011C020FF0DC060816F
S11327D071816817790741F4FA01EE0FFF1FE8527F
S11327E0FE4F208131810AC03296A9019A012F5FE0
S11327F03F4F2830310549F720E030E0822F932FF6
S11328000895CF92DF92EF92FF920F931F93CF938D
S1132810DF93EC016230710509F441C02CF461309E
S1132820710509F038C109C06330710509F472C03B
S11328306430710509F02FC1D1C020EC30E041E0D3
S113284050E06FE670E00E946C209093FC0180934E
S1132850FB012FE630E041E050E061E770E0CE019B
S11328600E946C209093FE018093FD0144E150E0AE
S11328706BE070E0CE010E94B4209093020280933A
S1132880010223E730E042E050E061E770E0CE016E
S11328900E946C20909300028093FF01FCC020EC06
S11328A030E041E050E06FE670E00E946C209093CD
S11328B0FC018093FB012FE630E041E050E061E74A
S11328C070E0CE010E946C209093FE018093FD0184
S11328D04AE050E063E070E0CE010E94B42090939F
S11328E006028093050243E150E06BE070E0CE0104
S11328F00E94B42090930402809303024FE350E0BB
S113290068E370E0CE010E94B420909308028093A3
S11329100702C1C025E730E042E050E0B9010E945F
S11329206C200F2EFBEFCF2EF1E0DF2EF02DF60101
S11329309183808325E730E043E050E0B901CE0184
S11329400E946C200F2EFDEFEF2EF1E0FF2EF02DF4
S1132950F7019183808320EC30E045E050E065E7A7
S113296070E0CE010E946C200BE012E0F80191832C
S1132970808325E730E046E050E0B901CE010E94B3
S11329806C2090930E0280930D0227E730E041E023
S113299050E0B901CE010E946C2090931202809302
S11329A0110225E730E041E050E069E770E0CE0134
S11329B00E946C2090931C0280931B02F60180817C
S11329C091810E940021F701808191810E94002160
S11329D0F801808191810E9400215DC025E730E0EB
S11329E041E050E0B9010E946C200F2EFBEFEF2E66
S11329F0F1E0FF2EF02DF7019183808325E730E08D
S1132A0042E050E0B901CE010E946C200DEF11E0CC
S1132A10F8019183808325E730E046E050E0B90176
S1132A20CE010E946C20909314028093130225E738
S1132A3030E047E050E0B901CE010E946C20909351
S1132A4016028093150227E730E041E050E0B90117
S1132A50CE010E946C2090931A028093190227E7FA
S1132A6030E042E050E0B901CE010E946C20909326
S1132A70120280931102F701808191810E9400214A
S1132A80F801808191810E94002180910B02909134
S1132A900C020E940021DF91CF911F910F91FF90B2
S1132AA0EF90DF90CF9008951092FC011092FB01FB
S1132AB01092FE011092FD0110920602109205027E
S1132AC010921A0210921902109204021092030238
S1132AD01092080210920702109202021092010250
S1132AE0109200021092FF0110920E0210920D0239
S1132AF01092100210920F02109212021092110200
S1132B00109218021092170210920A0210920902EF
S1132B10109214021092130210920C0210920B02E3
S1132B20109216021092150210921C0210921B02AF
S1132B3010921E0210921D020895AF92CF92DF925E
S1132B40EF920F931F93E12C05E010E022E830E0B0
S1132B504EEB50E062E370E08DE290E00E94C5111C
S1132B6023E830E04FEB50E063E370E08EE290E066
S1132B700E94C51124E830E040EC50E064E370E0CA
S1132B808FE290E00E94C51125E830E041EC50E06E
S1132B9065E370E080E390E00E94C5112EE330E02D
S1132BA043EC50E06EE370E08AE290E00E9474101F
S1132BB02FE330E043EC50E06FE370E08AE290E012
S1132BC00E94741023E530E043EC50E063E570E0CC
S1132BD08AE290E00E94741024E530E043EC50E077
S1132BE064E570E08AE290E00E9474100F2EF3E036
S1132BF0AF2EF02D0F2EFDE9CF2EFEEADF2EF02DA5
S1132C00EE24E3940BE710E024E130E04BEE50E0D7
S1132C1061E371E088E090E00E94C913AA24A394C0
S1132C20CC24CA94DC2C02E810E02CE231E04BEE18
S1132C3050E06CE271E085E090E00E94C9131F91BE
S1132C400F91EF90DF90CF90AF900895AF92CF9215
S1132C50DF92EF92FF920F931F93CF93DF93E12CB8
S1132C6002E010E02BE331E04BEE50E065E070E071
S1132C7085E090E00E94C5112AE331E04AEE50E07D
S1132C8066E070E086E090E00E94C51128E331E040
S1132C9048EE50E068E070E088E090E00E94C511E2
S1132CA06894AA24A1F80F2EFDE9CF2EFEEADF2EA8
S1132CB0F02DEE24E3940AE810E024E130E04AEE3B
S1132CC050E06AE070E08AE090E00E94C91321E4D9
S1132CD030E048EE50E061E470E088E090E00E946B
S1132CE07410CC24CA94DC2C07E910E024E130E011
S1132CF048EE50E06FEA70E08FE090E00E94C91364
S1132D000FE910E024E130E048EE50E06AEF70E0B3
S1132D108FE090E00E94C9130CEE10E024E130E053
S1132D2048EE50E06FE471E08FE090E00E94C91338
S1132D3024E031E048EE50E064E071E088E090E0A7
S1132D400E9474100FE112E0C0E0D0E008C00E94BD
S1132D501F21C15EDD4F89838E2D9F2D0DC00E94E2
S1132D601F21F80181938F017E01FFEFEF1AFF0A03
S1132D708D3069F3E701F3CFDF91CF911F910F916C
S1132D80FF90EF90DF90CF90AF900895AF92CF92E5
S1132D90DF92EF920F931F930E94E01390931E0211
S1132DA080931D02019719F56894AA24A1F80F2EA7
S1132DB0F6EECF2EF7E3DF2EF02DEE24E3940AEAAD
S1132DC010E024E031E04BEE50E061E171E08AE094
S1132DD090E00E94C9132FEF83ED90E321508040CF
S1132DE09040E1F700C0000021E030E021C0689489
S1132DF0AA24A1F80F2EC12CF8EFDF2EF02DEE241B
S1132E00E39402EB10E024E031E04BEE50E061E1AA
S1132E1071E08AE090E00E94C9132FEF83ED90E304
S1132E20215080409040E1F700C000002FEF3FEFB9
S1132E30822F932F1F910F91EF90DF90CF90AF903F
S1132E400895EF92FF920F931F93CF93DF930E9405
S1132E5054150FE112E0C0E0D0E00E941F21F801F8
S1132E6081938F017E01FFEFEF1AFF0A8D3011F07D
S1132E70E701F3CF0E941F21C15EDD4F8983C701A3
S1132E800E94E0139093F8018093F701BC018FE155
S1132E9092E00E940114F092E802E092E70280E0DE
S1132EA090E0DF91CF911F910F91FF90EF900895E3
S1132EB0AF92CF92DF92EF920F931F93CF93DF9352
S1132EC0CDB7DEB764970FB6F894DEBF0FBECDBFA3
S1132ED0E12C02E010E02BE331E04BEE50E065E042
S1132EE070E085E090E00E94C5112AE331E04AEEEB
S1132EF050E066E070E086E090E00E94C51128E3AF
S1132F0031E048EE50E068E070E088E090E00E9434
S1132F10C5118AE0E8EBF0E08E010F5F1F4FD80186
S1132F2001900D928A95E1F76091FB017091FC018B
S1132F30C8010E946022F80101900020E9F731974E
S1132F408EE290E091838083AA24A394CC24CA9433
S1132F50DC2C26E130E04BEE50E069E170E089E1E1
S1132F6090E00E94C91300910102109102026DECDD
S1132F7071E0C8010E946B22282F392F232B81F482
S1132F8086E0E2ECF0E0DE01119601900D928A9564
S1132F90E1F781E090E09093FA018093F90128C071
S1132FA062EC71E0C8010E946B22282F392F232B79
S1132FB081F48AE0E8ECF0E0DE01119601900D92D4
S1132FC08A95E1F782E090E09093FA018093F90109
S1132FD00FC083E090E09093FA018093F90186E0BA
S1132FE0E2EDF0E0DE01119601900D928A95E1F791
S1132FF0AA24A3940F2EF4E1CF2EFEEFDF2EF02DA2
S1133000E12C8E010F5F1F4F27E230E04BEE50E0C2
S113301062E370E089E190E00E94C91321E430E0AA
S113302048EE50E061E470E088E090E00E947410A3
S1133030CC24CA94DC2C08ED10E029E630E04BEEF9
S113304050E060E570E08EE190E00E94C91329E64B
S113305030E048EC50E069E670E08CE190E00E94DA
S113306074100F2EF8E0CF2EF5EADF2EF02D09EEC6
S113307010E021E930E04BEE50E068E770E084E1D5
S113308090E00E94C9130F2EF0EECF2EDD24DA94C7
S1133090F02D02EF10E02FEA30E04BEE50E066E94D
S11330A070E084E190E00E94C9130F2EF0E1CF2E6E
S11330B0F5EADF2EF02D09EF10E02DEC30E04BEEB9
S11330C050E064EB70E084E190E00E94C9130F2E9D
S11330D0F5EACF2EF3EEDF2EF02D09E011E02BEE12
S11330E030E04BEE50E062ED70E084E190E00E944D
S11330F0C9136894AA24A1F8CC24CA94DC2CEE2425
S1133100E3940AE111E02AEF30E04BEE50E064E092
S113311071E088E090E00E94C9130E942117649630
S11331200FB6F894DEBF0FBECDBFDF91CF911F91D4
S11331300F91EF90DF90CF90AF9008958F929F9270
S1133140AF92CF92DF92EF920F931F93CF93DF93BF
S1133150CDB7DEB764970FB6F894DEBF0FBECDBF10
S11331608091F7019091F8018230910509F408C12A
S113317024F4019709F07EC408C08330910509F452
S113318010C2049709F076C437C329E130E04FEE4A
S113319050E069E170E081E090E00E9474102AE15F
S11331A030E04FEE50E06AE170E081E090E00E9490
S11331B07410AA24A3940F2EF8E0CF2EF5EADF2E84
S11331C0F02DEE24E3940CEE10E026E130E04BEE1B
S11331D050E060E070E085E090E00E94C9136091E7
S11331E0FB017091FC0188248394912C8C0E9D1E0C
S11331F0C4010E947422F40101900020E9F7319780
S113320080E290E091838083CC24CA94DC2C04E295
S113321011E021E430E04BEE50E064E170E08AE03C
S113322090E00E94C9132FE530E04BEE50E06CE3D0
S113323070E085E090E00E94871120E630E04AEEDD
S113324050E06DE370E086E090E00E9487116091A9
S1133250FD017091FE01C4010E9460220F2EF0EE68
S1133260CF2EDD24DA94F02D8C012AE530E04BEEEC
S113327050E06EE370E08AE090E00E94C913809110
S1133280F9019091FA0101970297B8F5CC24CA94F8
S1133290DC2C02E311E027E830E04BEE50E06AE575
S11332A070E08AE090E00E94C91325EA30E04BEE1A
S11332B050E062E870E085E090E00E94871126EA21
S11332C030E04AEE50E063E870E086E090E00E946F
S11332D0871100910102109102020F2EF0EECF2E01
S11332E0DD24DA94F02D20EA30E04BEE50E064E87F
S11332F070E08AE090E00E94C9138091F9019091F6
S1133300FA01019709F0CBC3AA24A394CC24CA944C
S1133310DC2CEE24E39408E311E02DEC30E04BEEDA
S113332050E060EA70E08AE090E00E94C9132BEE5E
S113333030E04BEE50E068EC70E085E090E00E94F5
S113334087112CEE30E04AEE50E069EC70E086E044
S113335090E00E9487110091FF01109100020F2E4E
S1133360F0EECF2EDD24DA94F02D26EE30E04BEE95
S113337050E06AEC70E08AE090E00E94C9138FC3C9
S113338029E130E04FEE50E069E170E081E090E047
S11333900E9474102AE130E04FEE50E06AE170E0E0
S11333A081E090E00E947410AA24A3940F2EF0EE02
S11333B0CF2EDD24DA94F02DEE24E3940DE311E016
S11333C026E130E04BEE50E060E070E085E090E014
S11333D00E94C9136091FB017091FC0188248394BD
S11333E0912C8C0E9D1EC4010E947422F401019044
S11333F00020E9F7319780E290E091838083CC2428
S1133400CA94DC2C04E211E021E430E04BEE50E0FD
S113341064E170E08AE090E00E94C9132FE530E097
S11334204BEE50E06CE370E085E090E00E94871181
S11334306091FD017091FE01C4010E9460220F2E73
S1133440F0EECF2EDD24DA94F02D8C012AE530E065
S11334504BEE50E06EE370E08AE090E00E94C91306
S11334608091F9019091FA010197029768F5CC24B3
S1133470CA94DC2C06E411E027E830E04BEE50E07F
S11334806AE570E08AE090E00E94C91325EA30E022
S11334904BEE50E062E870E085E090E00E94871116
S11334A000910502109106020F2EF0EECF2EDD24BE
S11334B0DA94F02D20EA30E04BEE50E064E870E05E
S11334C08AE090E00E94C9138091F9019091FA0179
S11334D0019709F0E4C2AA24A394CC24CA94DC2C56
S11334E0EE24E39405E511E02DEC30E04BEE50E0E2
S11334F060EA70E08AE090E00E94C9132BEE30E0AD
S11335004BEE50E068EC70E085E090E00E9487119B
S113351000910302109104020F2EF0EECF2EDD2451
S1133520DA94F02D26EE30E04BEE50E06AEC70E0D9
S11335308AE090E00E94C9138091F9019091FA0108
S1133540019709F0ACC2CC24CA94DC2C02E611E049
S113355023E131E04BEE50E066EE70E08AE090E06B
S11335600E94C91321E331E04BEE50E06EE071E0BC
S113357085E090E00E9487110091070210910802F3
S11335800F2EF0EECF2EDD24DA94F02D2CE231E074
S11335904BEE50E060E171E08AE090E00E94C913D4
S11335A07EC229E130E04FEE50E069E170E081E055
S11335B090E00E9474102AE130E04FEE50E06AE19E
S11335C070E081E090E00E947410AA24A3940F2E6E
S11335D0F0E1CF2EF5EADF2EF02DEE24E3940CEF8C
S11335E010E026E130E04BEE50E060E070E085E072
S11335F090E00E94C9136091FB017091FC01882442
S11336008394912C8C0E9D1EC4010E947422F4019B
S113361001900020E9F7319780E290E09183808364
S1133620CC24CA94DC2C04E211E021E430E04BEE1B
S113363050E064E170E08AE090E00E94C9132FE555
S113364030E04BEE50E06CE370E085E090E00E94E7
S113365087116091FD017091FE01C4010E946022F6
S11336600F2EF0EECF2EDD24DA94F02D8C012AE516
S113367030E04BEE50E06EE370E08AE090E00E94B0
S1133680C9138091F9019091FA010197029708F00A
S113369046C060910B0270910C0288248394912C93
S11336A08C0E9D1EC4010E947422F401019000201E
S11336B0E9F7319780E290E091838083CC24CA9427
S11336C0DC2C0FE611E027E830E04BEE50E06AE531
S11336D070E08AE090E00E94C91325EA30E04BEEE6
S11336E050E062E870E085E090E00E94871160910C
S11336F00D0270910E02C4010E9460220F2EF0EEA2
S1133700CF2EDD24DA94F02D8C0120EA30E04BEE4C
S113371050E064E870E08AE090E00E94C913809170
S1133720F9019091FA01019709F0B9C1AA24A3946F
S1133730CC24CA94DC2CEE24E39406E711E02DECAF
S113374030E04BEE50E060EA70E08AE090E00E94E6
S1133750C9132BEE30E04BEE50E068EC70E085E0EE
S113376090E00E94871100911102109112020F2E15
S1133770F0EECF2EDD24DA94F02D26EE30E04BEE81
S113378050E06AEC70E08AE090E00E94C9138091F6
S1133790F9019091FA01019709F081C1CC24CA94EE
S11337A0DC2C0AE711E023E131E04BEE50E066EE59
S11337B070E08AE090E00E94C91321E331E04BEE0F
S11337C050E06EE071E085E090E00E948711009186
S11337D01B0210911C020F2EF0EECF2EDD24DA9482
S11337E0F02D2CE231E04BEE50E060E171E08AE034
S11337F090E00E94C91353C129E130E04FEE50E03C
S113380069E170E081E090E00E9474102AE130E008
S11338104FEE50E06AE170E081E090E00E947410A5
S1133820AA24A3940F2EF5EACF2EF3EEDF2EF02D6B
S1133830EE24E3940CE011E026E130E04BEE50E09E
S113384060E070E085E090E00E94C9136091FB01A4
S11338507091FC0188248394912C8C0E9D1EC401CC
S11338600E947422F40101900020E9F7319780E26C
S113387090E091838083CC24CA94DC2C04E211E090
S113388021E430E04BEE50E064E170E08AE090E047
S11338900E94C9132FE530E04BEE50E06CE370E07A
S11338A085E090E00E9487116091FD017091FE0116
S11338B0C4010E9460220F2EF0EECF2EDD24DA9494
S11338C0F02D8C012AE530E04BEE50E06EE370E021
S11338D08AE090E00E94C9138091F9019091FA0165
S11338E00197029768F5CC24CA94DC2C06E711E012
S11338F027E830E04BEE50E06AE570E08AE090E0C3
S11339000E94C91325EA30E04BEE50E062E870E013
S113391085E090E00E94871100911102109112023B
S11339200F2EF0EECF2EDD24DA94F02D20EA30E0D5
S11339304BEE50E064E870E08AE090E00E94C91326
S11339408091F9019091FA01019709F0A8C0AA2485
S1133950A394CC24CA94DC2CEE24E39408E811E06C
S11339602DEC30E043E750E060EA70E085E090E061
S11339700E94C9132BEE30E043E750E068EC70E09E
S113398085E090E00E9487110091130210911402C7
S11339900F2EF0EECF2EDD24DA94F02D26EE30E05B
S11339A043E750E06AEC70E08AE090E00E94C913BB
S11339B0CC24CA94DC2C05E911E02DEC30E04BEE6C
S11339C050E060EA70E088E790E00E94C9132BEEB3
S11339D030E04BEE50E068EC70E088E790E00E9445
S11339E087110091190210911A020F2EF0EECF2EBA
S11339F0DD24DA94F02D26EE30E04BEE50E06AEC54
S1133A0070E08AE790E00E94C9138091F9019091D7
S1133A10FA01019709F043C0CC24CA94DC2C03EAD0
S1133A2011E023E131E04BEE50E066EE70E085E01A
S1133A3090E00E94C91321E331E04BEE50E06EE0C8
S1133A4071E085E090E00E948711009115021091C9
S1133A5016020F2EF0EECF2EDD24DA94F02D2CE298
S1133A6031E04BEE50E060E171E08AE090E00E94CA
S1133A70C91315C0AA24A3940F2EC12CF8EFDF2E6E
S1133A80F02DEE24E3940EEA11E026E130E04BEE53
S1133A9050E064E170E085E090E00E94C913649610
S1133AA00FB6F894DEBF0FBECDBFDF91CF911F914B
S1133AB00F91EF90DF90CF90AF909F908F900895EB
S1133AC0CF93DF93EC0180E090E00E945C20C23051
S1133AD0D10579F01CF42197E1F406C0C330D10577
S1133AE071F02497B1F410C00E949D1520E030E0DD
S1133AF012C00E9426160E94C6169C010CC00E9489
S1133B00581720E030E007C00E949E1820E030E003
S1133B1002C02FEF3FEF822F932FDF91CF910895B3
S1133B20F89428E088E190E00FB6F894A895809383
S1133B3041000FBE20934100FFCF0E94A81380E0F4
S1133B4090E00E94A222282F392F3093F201209373
S1133B50F101232B09F05CC060E070E081E090E0AB
S1133B600E94601D2FEF83ED90E321508040904030
S1133B70E1F700C000008DB79EB784970FB6F894A4
S1133B809EBF0FBE8DBFADB7BEB7119684E2EBEFFB
S1133B90F1E001900D928A95E1F70E9454158DB7DA
S1133BA09EB784960FB6F8949EBF0FBE8DBF60E09B
S1133BB070E082E090E00E94601D0197C1F761E02F
S1133BC070E08FE192E00E94011460E070E083E015
S1133BD090E00E94601D60E070E084E090E00E944C
S1133BE0601D9FEF21E18AE7915020408040E1F77A
S1133BF000C0000081E090E09093F2018093F10115
S1133C0061E070E080E090E00E94A8220E94901D94
S1133C108DB79EB784970FB6F8949EBF0FBE8DBF25
S1133C20ADB7BEB7119684E2EBEFF1E001900D92CF
S1133C308A95E1F70E9454158DB79EB784960FB606
S1133C40F8949EBF0FBE8DBF60E070E082E090E00C
S1133C500E94601D0197C1F761E070E08FE192E07E
S1133C600E94011460E070E083E090E00E94601D17
S1133C7060E070E084E090E00E94601D9FEF21E12D
S1133C808AE7915020408040E1F700C0000081E0C5
S1133C9090E09093F2018093F10161E070E080E0A4
S1133CA090E00E94A8220E94901D1F920F920FB6CE
S1133CB00F9211241092F2011092F10160E070E071
S1133CC080E090E00E94A8220E94901D46E656E003
S1133CD005C09A01000021503109E1F70197C8F7A6
S1133CE008959398969885BB1BBA9598959A939A3C
S1133CF008959398969A85BB9BBB9598959A939AA9
S1133D000895CF93DF93EB010E94711ECE010E94B0
S1133D10791EDF91CF9108959398969885BB1BBA2D
S1133D209598959A14BA1ABA9498000029B3922FC8
S1133D3080E033B3949A939A2FEF24BB2ABBAC014F
S1133D40432B9A01822F932F08958FEF8BBB85BB52
S1133D5084BB8ABB939A969A959A949A97988B9ACD
S1133D608E9A8D9A8C9A8F9A84E190E00E94661EB6
S1133D70979A84E190E00E94661E08950E94A51E11
S1133D8080E00E948C1E2FEF24BB2ABB85BB9BBB0B
S1133D9080E00E94711E81E090E00E94791E8FE015
S1133DA090E00E94661E83E00E94711E8CEA9AEAEB
S1133DB00E94791E8CE00E94711E82E090E00E94B5
S1133DC0791E8DE00E94711E8AE090E00E94791EA7
S1133DD08EE00E94711E80E09CE20E94791E8EE1BA
S1133DE00E94711E88EB90E00E94791E8FE090E0A3
S1133DF00E94661E81E00E94711E8FE39BE20E9476
S1133E00791E82E00E94711E80E096E00E94791E75
S1133E1080E10E94711E80E090E00E94791E81E1A1
S1133E200E94711E80E390E60E94791E84E190E076
S1133E300E94661E85E00E94711E80E090E00E9450
S1133E40791E86E00E94711E80E090E00E94791E37
S1133E5086E10E94711E8CE19FEE0E94791E87E12B
S1133E600E94711E83E090E00E94791E87E00E9408
S1133E70711E83E392E00E94791E8BE00E94711E02
S1133E8082E193E50E94791E8FE00E94711E80E01A
S1133E9090E00E94791E84E190E00E94661E81E415
S1133EA00E94711E80E090E00E94791E82E40E94CC
S1133EB0711E80E090E00E94791E88E40E94711EC9
S1133EC080E090E00E94791E89E40E94711E8FE3D5
S1133ED091E00E94791E84E40E94711E80E09FEEAE
S1133EE00E94791E85E40E94711E80E090E00E9489
S1133EF0791E86E40E94711E8FE391E00E94791E70
S1133F0084E190E00E94661E80E30E94711E87E0B7
S1133F1097E00E94791E81E30E94711E84E097E07D
S1133F200E94791E82E30E94711E84E092E00E9446
S1133F30791E83E30E94711E81E092E00E94791E43
S1133F4084E30E94711E83E092E00E94791E85E35F
S1133F500E94711E84E092E00E94791E86E30E9412
S1133F60711E84E092E00E94791E87E30E94711E14
S1133F7082E095E00E94791E8AE30E94711E82E02D
S1133F8093E00E94791E8BE30E94711E80E095E00D
S1133F900E94791E84E190E00E94661E0895CF93EA
S1133FA0DF93EB01BC018EE40E94811EBE018FE40D
S1133FB00E94811E82E20E94711EDF91CF910895BA
S1133FC0DF92EF92FF920F931F93CF93DF93EC0155
S1133FD08B01D42E790184E40E94711E9D2D80E012
S1133FE08C2B9D2B0E94791E85E40E94711EC801B2
S1133FF00E94791E86E40E94711EC7010E94791EE8
S1134000B801CE010E94CF1FDF91CF911F910F9174
S1134010FF90EF90DF9008950E94CF1F80916D0074
S113402090916E000E94791E08956F927F928F92F4
S11340309F92AF92BF92CF92DF92EF92FF920F9333
S11340401F93CF93DF935C016B017A0149010E94B6
S1134050E01F8C149D0488F416C0C62DD72DC8010A
S11340600E94791E2196EC16FD06C8F78FEFC81A38
S1134070D80A8C149D0418F406C06A2C7B2CEA140C
S1134080FB0458F7F3CF2FE331E04FEE50E060E04C
S113409070E080E090E00E94E01FDF91CF911F91DB
S11340A00F91FF90EF90DF90CF90BF90AF909F90D3
S11340B08F907F906F9008950F931F938C012FE33F
S11340C031E04FEE50E060E070E080E090E00E946C
S11340D015201F910F910895AF92BF92CF92DF9256
S11340E0EF92FF920F931F93CF93DF93A82EB92ED5
S11340F06B018A017901E82FF92FDF010D9000206F
S1134100E9F71197CD018E1B9F0B0E942321C82F25
S1134110D92F6A2D7B2DCE010E947422209799F00D
S1134120F6019081FE01DF0131968C91891302C062
S1134130015011090115110519F4ED01219603C06F
S1134140EF01309781F7B701CE010E945B228C2FDB
S11341509D2FDF91CF911F910F91FF90EF90DF90F2
S1134160CF90BF90AF900895CF92DF92EF92FF92DD
S11341700F931F93CF93DF93C82ED92E7B018A010F
S1134180461757076CF1E82FF92FDF010D90002037
S1134190E9F71197CD018E1B9F0B0E942321C82F95
S11341A0D92F6C2D7D2DCE010E9474222097D9F039
S11341B020E030E0E0E0F0E0B70161507109A801CF
S11341C0415051096217730729F04217530719F434
S11341D019820BC0FE012F5F3F4F219699F705C04E
S11341E0E0E0F0E002C0E0E0F0E08E2F9F2FDF91EE
S11341F0CF911F910F91FF90EF90DF90CF90089592
S1134200FC0180818823A1F03AE523E493E580341E
S113421011F4308305C080818D3511F4208304C0EE
S113422080818B3509F49083319680818111EFCFA1
S1134230089589B986E880BD88E18AB908955F9BAD
S1134240FECF8CB108950F931F93CF93DF938230E9
S1134250910510F482E090E0E091EB02F091EC0221
S113426020E030E0C0E0D0E023C040815181481715
S11342705907A8F04817590761F482819381209760
S113428019F09B838A832EC09093EC028093EB02F7
S113429029C02115310529F04217530710F0A9014F
S11342A002C0BE01DF0102811381EF019A01F8010E
S11342B03097D9F62115310509F1281B390B243023
S11342C0310590F412968D919C91139761157105A7
S11342D021F0FB019383828304C09093EC028093CA
S11342E0EB02FD01329644C0FD01E20FF31F8193FE
S11342F09193225031092D933C933AC02091E902C5
S11343003091EA02232B41F4209162003091630042
S11343103093EA022093E902209160003091610019
S11343202115310541F42DB73EB7409164005091F9
S11343306500241B350BE091E902F091EA02E217D3
S1134340F307A0F42E1B3F0B2817390778F0AC01B4
S11343504E5F5F4F2417350748F04E0F5F1F509391
S1134360EA024093E9028193919302C0E0E0F0E015
S1134370CF01DF91CF911F910F910895EF92FF929A
S11343800F931F93CF93DF93009709F48FC0DC0141
S1134390129713961C921E921297E090EB02F090E3
S11343A0EC02E114F10489F42D913C911197280F4A
S11343B0391F8091E9029091EA028217930789F5E7
S11343C0B093EA02A093E90271C0E70120E030E073
S11343D001C0EA01CA17DB0738F44A815B819E01F8
S11343E041155105B1F722C0BC0162507109FB01AE
S11343F0D383C28300811181AC01400F511F4C173C
S11344005D0761F448815981400F511F4E5F5F4F32
S1134410518340834A815B81538342832115310553
S113442029F4B093EC02A093EB0240C0F901B383EA
S1134430A283E90169917991C60FD71FAC17BD0713
S113444079F4DC015E914E91460F571F4E5F5F4F2A
S11344505183408312968D919C9113979383828309
S1134460A0E0B0E002C0D7017C01F7018281938112
S11344700097C9F7C701029620813181820F931FEB
S11344802091E9023091EA022817390779F410974C
S113449029F41092EC021092EB0204C013961C92C1
S11344A01E921297F092EA02E092E902CDB7DEB7CB
S11344B0E6E00C94D62248EE51E00E947B22089557
S11344C0FB01DC010D900020E9F7119701900D929A
S11344D00020E1F70895FB01DC018D910190801922
S11344E00110D9F3990B0895FB01DC0101900D92A1
S11344F00020E1F70895FA01A191B081009719F421
S11345001097E1F0CD01DC01CD010D90002011F4F4
S1134510C00113C0FB012191222319F02015D9F702
S1134520F3CFFB012191201519F41E92119606C0B8
S11345302223C1F70D900020A1F7D001FA01A19325
S1134540B0830895A8E1B0E042E050E00C94AF22BB
S11345500E94BD22272F0C94BE22DC01CB01FC015A
S1134560E199FECF06C0FFBBEEBBE09A31960DB2D7
S11345700D9241505040B8F70895262FE199FECF8F
S11345809FBB8EBB2DBB0FB6F894E29AE19A0FBE87
S1134590019608952A88398848885F846E847D84CA
S11345A08C849B84AA84B984C884DF80EE80FD80D7
S11345B00C811B81AA81B981CE0FD11D0FB6F8944D
S11145C0DEBF0FBECDBFED010895F894FFCF0E
S11345CE0000ED022000010101FFFFFFFFFFFF2F9E
S11345DE005E003F0029003D0025005269526561CE
S11345EE640062792042454C46005269526561640A
S11345FE204C6F67696E00506C656173652C007397
S113460E7769706520796F7572005355434345532E
S113461E53004552524F520057656C636F6D652CB3
S113462E200041444D494E004D4F44455241544F94
S113463E5200475545535400504F44525A414E452B
S113464E204B41525449434500203E20582D696366
S113465E6100203E2048414B00203E20485A5A4FCC
S113466E204F6276657A6E6F00203E20485A5A4F6C
S113467E20446F70756E736B6F005357495045200D
S113468E49542100496D652069207072657A696DFF
S113469E65004A4D424147004A4D42470048414B4E
S11346AE20636172640042726F6A206175746F6B6D
S11346BE6C75626100436C616E736B692062726F1C
S11346CE6A00446174756D20697374656B61004191
S11346DE6472657361004F494200446174756D20C4
S11346EE726F64656E6A6100536966726120706FE1
S11346FE6C6963650042722E2069736B617A6E6910
S113470E6365005672696A656469206F64004E655C
S113471E706F64727A616E61206B61727469636129
S113472E21003030363930353933383700303036B1
S113473E3930343939353000010055000200650036
S10B474E03008B000400850048
S9030000FC
